{
  "address": "0xb2A61B911f993c6505D9e99C1e8606B7EA3866E8",
  "abi": [
    {
      "inputs": [
        {
          "internalType": "contract VolcanoCoin",
          "name": "_volcanoCoin",
          "type": "address"
        }
      ],
      "stateMutability": "nonpayable",
      "type": "constructor"
    },
    {
      "anonymous": false,
      "inputs": [
        {
          "indexed": true,
          "internalType": "address",
          "name": "owner",
          "type": "address"
        },
        {
          "indexed": true,
          "internalType": "address",
          "name": "approved",
          "type": "address"
        },
        {
          "indexed": true,
          "internalType": "uint256",
          "name": "tokenId",
          "type": "uint256"
        }
      ],
      "name": "Approval",
      "type": "event"
    },
    {
      "anonymous": false,
      "inputs": [
        {
          "indexed": true,
          "internalType": "address",
          "name": "owner",
          "type": "address"
        },
        {
          "indexed": true,
          "internalType": "address",
          "name": "operator",
          "type": "address"
        },
        {
          "indexed": false,
          "internalType": "bool",
          "name": "approved",
          "type": "bool"
        }
      ],
      "name": "ApprovalForAll",
      "type": "event"
    },
    {
      "anonymous": false,
      "inputs": [
        {
          "indexed": true,
          "internalType": "address",
          "name": "previousOwner",
          "type": "address"
        },
        {
          "indexed": true,
          "internalType": "address",
          "name": "newOwner",
          "type": "address"
        }
      ],
      "name": "OwnershipTransferred",
      "type": "event"
    },
    {
      "anonymous": false,
      "inputs": [
        {
          "indexed": true,
          "internalType": "address",
          "name": "from",
          "type": "address"
        },
        {
          "indexed": true,
          "internalType": "address",
          "name": "to",
          "type": "address"
        },
        {
          "indexed": true,
          "internalType": "uint256",
          "name": "tokenId",
          "type": "uint256"
        }
      ],
      "name": "Transfer",
      "type": "event"
    },
    {
      "inputs": [
        {
          "internalType": "address",
          "name": "to",
          "type": "address"
        },
        {
          "internalType": "uint256",
          "name": "tokenId",
          "type": "uint256"
        }
      ],
      "name": "approve",
      "outputs": [],
      "stateMutability": "nonpayable",
      "type": "function"
    },
    {
      "inputs": [
        {
          "internalType": "address",
          "name": "owner",
          "type": "address"
        }
      ],
      "name": "balanceOf",
      "outputs": [
        {
          "internalType": "uint256",
          "name": "",
          "type": "uint256"
        }
      ],
      "stateMutability": "view",
      "type": "function"
    },
    {
      "inputs": [
        {
          "internalType": "uint256",
          "name": "tokenId",
          "type": "uint256"
        }
      ],
      "name": "getApproved",
      "outputs": [
        {
          "internalType": "address",
          "name": "",
          "type": "address"
        }
      ],
      "stateMutability": "view",
      "type": "function"
    },
    {
      "inputs": [
        {
          "internalType": "address",
          "name": "owner",
          "type": "address"
        },
        {
          "internalType": "address",
          "name": "operator",
          "type": "address"
        }
      ],
      "name": "isApprovedForAll",
      "outputs": [
        {
          "internalType": "bool",
          "name": "",
          "type": "bool"
        }
      ],
      "stateMutability": "view",
      "type": "function"
    },
    {
      "inputs": [],
      "name": "mint",
      "outputs": [
        {
          "internalType": "uint256",
          "name": "",
          "type": "uint256"
        }
      ],
      "stateMutability": "payable",
      "type": "function"
    },
    {
      "inputs": [],
      "name": "name",
      "outputs": [
        {
          "internalType": "string",
          "name": "",
          "type": "string"
        }
      ],
      "stateMutability": "view",
      "type": "function"
    },
    {
      "inputs": [],
      "name": "owner",
      "outputs": [
        {
          "internalType": "address",
          "name": "",
          "type": "address"
        }
      ],
      "stateMutability": "view",
      "type": "function"
    },
    {
      "inputs": [
        {
          "internalType": "uint256",
          "name": "tokenId",
          "type": "uint256"
        }
      ],
      "name": "ownerOf",
      "outputs": [
        {
          "internalType": "address",
          "name": "",
          "type": "address"
        }
      ],
      "stateMutability": "view",
      "type": "function"
    },
    {
      "inputs": [],
      "name": "renounceOwnership",
      "outputs": [],
      "stateMutability": "nonpayable",
      "type": "function"
    },
    {
      "inputs": [
        {
          "internalType": "address",
          "name": "from",
          "type": "address"
        },
        {
          "internalType": "address",
          "name": "to",
          "type": "address"
        },
        {
          "internalType": "uint256",
          "name": "tokenId",
          "type": "uint256"
        }
      ],
      "name": "safeTransferFrom",
      "outputs": [],
      "stateMutability": "nonpayable",
      "type": "function"
    },
    {
      "inputs": [
        {
          "internalType": "address",
          "name": "from",
          "type": "address"
        },
        {
          "internalType": "address",
          "name": "to",
          "type": "address"
        },
        {
          "internalType": "uint256",
          "name": "tokenId",
          "type": "uint256"
        },
        {
          "internalType": "bytes",
          "name": "data",
          "type": "bytes"
        }
      ],
      "name": "safeTransferFrom",
      "outputs": [],
      "stateMutability": "nonpayable",
      "type": "function"
    },
    {
      "inputs": [
        {
          "internalType": "address",
          "name": "operator",
          "type": "address"
        },
        {
          "internalType": "bool",
          "name": "approved",
          "type": "bool"
        }
      ],
      "name": "setApprovalForAll",
      "outputs": [],
      "stateMutability": "nonpayable",
      "type": "function"
    },
    {
      "inputs": [
        {
          "internalType": "bytes4",
          "name": "interfaceId",
          "type": "bytes4"
        }
      ],
      "name": "supportsInterface",
      "outputs": [
        {
          "internalType": "bool",
          "name": "",
          "type": "bool"
        }
      ],
      "stateMutability": "view",
      "type": "function"
    },
    {
      "inputs": [],
      "name": "symbol",
      "outputs": [
        {
          "internalType": "string",
          "name": "",
          "type": "string"
        }
      ],
      "stateMutability": "view",
      "type": "function"
    },
    {
      "inputs": [
        {
          "internalType": "uint256",
          "name": "tokenId",
          "type": "uint256"
        }
      ],
      "name": "tokenURI",
      "outputs": [
        {
          "internalType": "string",
          "name": "",
          "type": "string"
        }
      ],
      "stateMutability": "view",
      "type": "function"
    },
    {
      "inputs": [
        {
          "internalType": "address",
          "name": "from",
          "type": "address"
        },
        {
          "internalType": "address",
          "name": "to",
          "type": "address"
        },
        {
          "internalType": "uint256",
          "name": "tokenId",
          "type": "uint256"
        }
      ],
      "name": "transferFrom",
      "outputs": [],
      "stateMutability": "nonpayable",
      "type": "function"
    },
    {
      "inputs": [
        {
          "internalType": "address",
          "name": "newOwner",
          "type": "address"
        }
      ],
      "name": "transferOwnership",
      "outputs": [],
      "stateMutability": "nonpayable",
      "type": "function"
    },
    {
      "inputs": [],
      "name": "withdraw",
      "outputs": [
        {
          "internalType": "bool",
          "name": "success",
          "type": "bool"
        }
      ],
      "stateMutability": "nonpayable",
      "type": "function"
    }
  ],
  "transactionHash": "0x868a8b686a5d20056e4d13e2358346ed4475f68310de12567d5da507aa878ad1",
  "args": [
    "0x91aCD3D1fd81CC784209Fb5dCc86aACE901516ef"
  ],
  "numDeployments": 1,
  "solcInputHash": "d8b3a975e429c67bd4d5faab25cfb3a2",
  "bytecode": "0x60a06040523480156200001157600080fd5b506040516200292b3803806200292b83398101604081905262000034916200011a565b6040518060400160405280600b81526020016a159bdb18d85b9bc813919560aa1b815250604051806040016040528060048152602001634c41564160e01b8152508160009081620000869190620001f1565b506001620000958282620001f1565b505050620000b2620000ac620000c460201b60201c565b620000c8565b6001600160a01b0316608052620002bd565b3390565b600680546001600160a01b038381166001600160a01b0319831681179093556040519116919082907f8be0079c531659141344cd1fd0a4f28419497f9722a3daafe3b4186f6b6457e090600090a35050565b6000602082840312156200012d57600080fd5b81516001600160a01b03811681146200014557600080fd5b9392505050565b634e487b7160e01b600052604160045260246000fd5b600181811c908216806200017757607f821691505b6020821081036200019857634e487b7160e01b600052602260045260246000fd5b50919050565b601f821115620001ec57600081815260208120601f850160051c81016020861015620001c75750805b601f850160051c820191505b81811015620001e857828155600101620001d3565b5050505b505050565b81516001600160401b038111156200020d576200020d6200014c565b62000225816200021e845462000162565b846200019e565b602080601f8311600181146200025d5760008415620002445750858301515b600019600386901b1c1916600185901b178555620001e8565b600085815260208120601f198616915b828110156200028e578886015182559484019460019091019084016200026d565b5085821015620002ad5787850151600019600388901b60f8161c191681555b5050505050600190811b01905550565b608051612652620002d960003960006105b101526126526000f3fe6080604052600436106101095760003560e01c806370a0823111610095578063a22cb46511610064578063a22cb465146102b2578063b88d4fde146102d2578063c87b56dd146102f2578063e985e9c514610312578063f2fde38b1461033257600080fd5b806370a082311461024a578063715018a61461026a5780638da5cb5b1461027f57806395d89b411461029d57600080fd5b80631249c58b116100dc5780631249c58b146101bf57806323b872dd146101d55780633ccfd60b146101f557806342842e0e1461020a5780636352211e1461022a57600080fd5b806301ffc9a71461010e57806306fdde0314610143578063081812fc14610165578063095ea7b31461019d575b600080fd5b34801561011a57600080fd5b5061012e610129366004611d52565b610352565b60405190151581526020015b60405180910390f35b34801561014f57600080fd5b506101586103a4565b60405161013a9190611dc6565b34801561017157600080fd5b50610185610180366004611dd9565b610436565b6040516001600160a01b03909116815260200161013a565b3480156101a957600080fd5b506101bd6101b8366004611e09565b61045d565b005b6101c7610577565b60405190815260200161013a565b3480156101e157600080fd5b506101bd6101f0366004611e33565b6106b1565b34801561020157600080fd5b5061012e6106e2565b34801561021657600080fd5b506101bd610225366004611e33565b610779565b34801561023657600080fd5b50610185610245366004611dd9565b610794565b34801561025657600080fd5b506101c7610265366004611e6f565b6107f4565b34801561027657600080fd5b506101bd61087a565b34801561028b57600080fd5b506006546001600160a01b0316610185565b3480156102a957600080fd5b5061015861088e565b3480156102be57600080fd5b506101bd6102cd366004611e98565b61089d565b3480156102de57600080fd5b506101bd6102ed366004611ee5565b6108ac565b3480156102fe57600080fd5b5061015861030d366004611dd9565b6108e4565b34801561031e57600080fd5b5061012e61032d366004611fc1565b610c3c565b34801561033e57600080fd5b506101bd61034d366004611e6f565b610c6a565b60006001600160e01b031982166380ac58cd60e01b148061038357506001600160e01b03198216635b5e139f60e01b145b8061039e57506301ffc9a760e01b6001600160e01b03198316145b92915050565b6060600080546103b390611ff4565b80601f01602080910402602001604051908101604052809291908181526020018280546103df90611ff4565b801561042c5780601f106104015761010080835404028352916020019161042c565b820191906000526020600020905b81548152906001019060200180831161040f57829003601f168201915b5050505050905090565b600061044182610ce3565b506000908152600460205260409020546001600160a01b031690565b600061046882610794565b9050806001600160a01b0316836001600160a01b0316036104da5760405162461bcd60e51b815260206004820152602160248201527f4552433732313a20617070726f76616c20746f2063757272656e74206f776e656044820152603960f91b60648201526084015b60405180910390fd5b336001600160a01b03821614806104f657506104f68133610c3c565b6105685760405162461bcd60e51b815260206004820152603e60248201527f4552433732313a20617070726f76652063616c6c6572206973206e6f7420746f60448201527f6b656e206f776e6572206e6f7220617070726f76656420666f7220616c6c000060648201526084016104d1565b6105728383610d42565b505050565b600066038d7ea4c68000341015610687576040516323b872dd60e01b8152336004820152306024820152670de0b6b3a764000060448201527f00000000000000000000000000000000000000000000000000000000000000006001600160a01b0316906323b872dd906064016020604051808303816000875af1158015610602573d6000803e3d6000fd5b505050506040513d601f19601f82011682018060405250810190610626919061202e565b6106875760405162461bcd60e51b815260206004820152602c60248201527f4d696e742070726963652069732065697468657220302e30303120455448206f60448201526b391018902620ab20a1a7a4a760a11b60648201526084016104d1565b610695600780546001019055565b60006106a060075490565b90506106ac3382610db0565b919050565b6106bb3382610dca565b6106d75760405162461bcd60e51b81526004016104d19061204b565b610572838383610e29565b60006106ec610fc5565b60405133904790600081818185875af1925050503d806000811461072c576040519150601f19603f3d011682016040523d82523d6000602084013e610731565b606091505b505080915050806107765760405162461bcd60e51b815260206004820152600f60248201526e15da5d1a191c985dc819985a5b1959608a1b60448201526064016104d1565b90565b610572838383604051806020016040528060008152506108ac565b6000818152600260205260408120546001600160a01b03168061039e5760405162461bcd60e51b8152602060048201526018602482015277115490cdcc8c4e881a5b9d985b1a59081d1bdad95b88125160421b60448201526064016104d1565b60006001600160a01b03821661085e5760405162461bcd60e51b815260206004820152602960248201527f4552433732313a2061646472657373207a65726f206973206e6f7420612076616044820152683634b21037bbb732b960b91b60648201526084016104d1565b506001600160a01b031660009081526003602052604090205490565b610882610fc5565b61088c600061101f565b565b6060600180546103b390611ff4565b6108a8338383611071565b5050565b6108b63383610dca565b6108d25760405162461bcd60e51b81526004016104d19061204b565b6108de8484848461113f565b50505050565b60606108ef82610ce3565b60006108fd600360146120af565b67ffffffffffffffff81111561091557610915611ecf565b60405190808252806020026020018201604052801561095a57816020015b60408051808201909152600080825260208201528152602001906001900390816109335790505b50905060008061096f85610378610309611172565b909250905060015b610983601460036120af565b81116109ee57600080610997858585611172565b91509150604051806040016040528083815260200182815250866001856109be91906120c6565b815181106109ce576109ce6120d9565b6020026020010181905250505080806109e6906120ef565b915050610977565b50604080516020810190915260008082525b6014811015610b8957604080516020810190915260008082525b6003811015610ad05781610a5f8883610a346003886120af565b610a3e9190612108565b81518110610a4e57610a4e6120d9565b602002602001015160000151611192565b610a9a8984610a6f6003896120af565b610a799190612108565b81518110610a8957610a896120d9565b602002602001015160200151611192565b604051602001610aac9392919061211b565b60405160208183030381529060405291508080610ac8906120ef565b915050610a1a565b508281610b0f603b89610ae46003886120af565b81518110610af457610af46120d9565b602002602001015160000151610b0a919061218b565b611192565b610b5160148a610b206003896120af565b81518110610b3057610b306120d9565b602002602001015160000151610b46919061218b565b610b0a906032612108565b604051602001610b64949392919061219f565b6040516020818303038152906040529250508080610b81906120ef565b915050610a00565b50600081604051602001610b9d919061226c565b60405160208183030381529060405290506000610bb982611293565b90506000610c0c610bc98a611192565b604051602001610bd9919061239b565b60408051601f1981840301815290829052610bf89185906020016123d0565b604051602081830303815290604052611293565b905080604051602001610c1f91906124d7565b604051602081830303815290604052975050505050505050919050565b6001600160a01b03918216600090815260056020908152604080832093909416825291909152205460ff1690565b610c72610fc5565b6001600160a01b038116610cd75760405162461bcd60e51b815260206004820152602660248201527f4f776e61626c653a206e6577206f776e657220697320746865207a65726f206160448201526564647265737360d01b60648201526084016104d1565b610ce08161101f565b50565b6000818152600260205260409020546001600160a01b0316610ce05760405162461bcd60e51b8152602060048201526018602482015277115490cdcc8c4e881a5b9d985b1a59081d1bdad95b88125160421b60448201526064016104d1565b600081815260046020526040902080546001600160a01b0319166001600160a01b0384169081179091558190610d7782610794565b6001600160a01b03167f8c5be1e5ebec7d5bd14f71427d1e84f3dd0314c0f7b2291e5b200ac8c7c3b92560405160405180910390a45050565b6108a88282604051806020016040528060008152506113e6565b600080610dd683610794565b9050806001600160a01b0316846001600160a01b03161480610dfd5750610dfd8185610c3c565b80610e215750836001600160a01b0316610e1684610436565b6001600160a01b0316145b949350505050565b826001600160a01b0316610e3c82610794565b6001600160a01b031614610ea05760405162461bcd60e51b815260206004820152602560248201527f4552433732313a207472616e736665722066726f6d20696e636f72726563742060448201526437bbb732b960d91b60648201526084016104d1565b6001600160a01b038216610f025760405162461bcd60e51b8152602060048201526024808201527f4552433732313a207472616e7366657220746f20746865207a65726f206164646044820152637265737360e01b60648201526084016104d1565b610f0d600082610d42565b6001600160a01b0383166000908152600360205260408120805460019290610f369084906120c6565b90915550506001600160a01b0382166000908152600360205260408120805460019290610f64908490612108565b909155505060008181526002602052604080822080546001600160a01b0319166001600160a01b0386811691821790925591518493918716917fddf252ad1be2c89b69c2b068fc378daa952ba7f163c4a11628f55a4df523b3ef91a4505050565b6006546001600160a01b0316331461088c5760405162461bcd60e51b815260206004820181905260248201527f4f776e61626c653a2063616c6c6572206973206e6f7420746865206f776e657260448201526064016104d1565b600680546001600160a01b038381166001600160a01b0319831681179093556040519116919082907f8be0079c531659141344cd1fd0a4f28419497f9722a3daafe3b4186f6b6457e090600090a35050565b816001600160a01b0316836001600160a01b0316036110d25760405162461bcd60e51b815260206004820152601960248201527f4552433732313a20617070726f766520746f2063616c6c65720000000000000060448201526064016104d1565b6001600160a01b03838116600081815260056020908152604080832094871680845294825291829020805460ff191686151590811790915591519182527f17307eab39ab6107e8899845ad3d59bd9653f200f220920489ca2b5937696c31910160405180910390a3505050565b61114a848484610e29565b61115684848484611419565b6108de5760405162461bcd60e51b81526004016104d19061251c565b6000806111868386866103096103e561151a565b91509150935093915050565b6060816000036111b95750506040805180820190915260018152600360fc1b602082015290565b8160005b81156111e357806111cd816120ef565b91506111dc9050600a8361256e565b91506111bd565b60008167ffffffffffffffff8111156111fe576111fe611ecf565b6040519080825280601f01601f191660200182016040528015611228576020820181803683370190505b5090505b8415610e215761123d6001836120c6565b915061124a600a8661218b565b611255906030612108565b60f81b81838151811061126a5761126a6120d9565b60200101906001600160f81b031916908160001a90535061128c600a8661256e565b945061122c565b606081516000036112b257505060408051602081019091526000815290565b60006040518060600160405280604081526020016125dd60409139905060006003845160026112e19190612108565b6112eb919061256e565b6112f69060046120af565b67ffffffffffffffff81111561130e5761130e611ecf565b6040519080825280601f01601f191660200182016040528015611338576020820181803683370190505b509050600182016020820185865187015b808210156113a4576003820191508151603f8160121c168501518453600184019350603f81600c1c168501518453600184019350603f8160061c168501518453600184019350603f8116850151845350600183019250611349565b50506003865106600181146113c057600281146113d3576113db565b603d6001830353603d60028303536113db565b603d60018303535b509195945050505050565b6113f08383611554565b6113fd6000848484611419565b6105725760405162461bcd60e51b81526004016104d19061251c565b60006001600160a01b0384163b1561150f57604051630a85bd0160e11b81526001600160a01b0385169063150b7a029061145d903390899088908890600401612582565b6020604051808303816000875af1925050508015611498575060408051601f3d908101601f19168201909252611495918101906125bf565b60015b6114f5573d8080156114c6576040519150601f19603f3d011682016040523d82523d6000602084013e6114cb565b606091505b5080516000036114ed5760405162461bcd60e51b81526004016104d19061251c565b805181602001fd5b6001600160e01b031916630a85bd0160e11b149050610e21565b506001949350505050565b60008060008060006115318a8a8a60018b8b611696565b92509250925061154383838389611718565b945094505050509550959350505050565b6001600160a01b0382166115aa5760405162461bcd60e51b815260206004820181905260248201527f4552433732313a206d696e7420746f20746865207a65726f206164647265737360448201526064016104d1565b6000818152600260205260409020546001600160a01b03161561160f5760405162461bcd60e51b815260206004820152601c60248201527f4552433732313a20746f6b656e20616c7265616479206d696e7465640000000060448201526064016104d1565b6001600160a01b0382166000908152600360205260408120805460019290611638908490612108565b909155505060008181526002602052604080822080546001600160a01b0319166001600160a01b03861690811790915590518392907fddf252ad1be2c89b69c2b068fc378daa952ba7f163c4a11628f55a4df523b3ef908290a45050565b6000806000886000036116b057508691508590508461170c565b8860008060015b83156117035760018416156116dd576116d58383838f8f8f8e611787565b919450925090505b6116e860028561256e565b93506116f78c8c8c8c8c611aba565b919d509b5099506116b7565b91955093509150505b96509650969350505050565b60008060006117278585611c5d565b90506000848061173957611739612175565b82830990506000858061174e5761174e612175565b828a0990506000868061176357611763612175565b878061177157611771612175565b8486098a09919a91995090975050505050505050565b6000808089158015611797575088155b156117a9575085915084905083611aad565b861580156117b5575085155b156117c7575088915087905086611aad565b6117cf611d1e565b84806117dd576117dd612175565b898a09815284806117f0576117f0612175565b81518a096020820152848061180757611807612175565b8687096040820152848061181d5761181d612175565b604082015187096060820152604080516080810190915280868061184357611843612175565b60408401518e098152602001868061185d5761185d612175565b60608401518d098152602001868061187757611877612175565b83518b098152602001868061188e5761188e612175565b60208401518a099052604081015181519192501415806118b657506060810151602082015114155b6119025760405162461bcd60e51b815260206004820152601e60248201527f557365206a6163446f75626c652066756e6374696f6e20696e7374656164000060448201526064016104d1565b61190a611d1e565b858061191857611918612175565b825161192490886120c6565b6040840151088152858061193a5761193a612175565b602083015161194990886120c6565b6060840151086020820152858061196257611962612175565b815180096040820152858061197957611979612175565b815160408301510960608201526000868061199657611996612175565b60608301516119a590896120c6565b88806119b3576119b3612175565b6020850151800908905086806119cb576119cb612175565b87806119d9576119d9612175565b88806119e7576119e7612175565b60408501518651096002096119fc90896120c6565b8208905060008780611a1057611a10612175565b8880611a1e57611a1e612175565b611a28848b6120c6565b8a80611a3657611a36612175565b60408701518851090860208501510990508780611a5557611a55612175565b8880611a6357611a63612175565b6060850151602087015109611a78908a6120c6565b8208905060008880611a8c57611a8c612175565b8980611a9a57611a9a612175565b8b8f098551099297509095509093505050505b9750975097945050505050565b600080600085600003611ad4575086915085905084611c52565b60008480611ae457611ae4612175565b898a09905060008580611af957611af9612175565b898a09905060008680611b0e57611b0e612175565b898a09905060008780611b2357611b23612175565b8880611b3157611b31612175565b848e09600409905060008880611b4957611b49612175565b8980611b5757611b57612175565b8a80611b6557611b65612175565b8586098c098a80611b7857611b78612175565b876003090890508880611b8d57611b8d612175565b8980611b9b57611b9b612175565b838408611ba8908b6120c6565b8a80611bb657611bb6612175565b8384090894508880611bca57611bca612175565b8980611bd857611bd8612175565b8a80611be657611be6612175565b868709600809611bf6908b6120c6565b8a80611c0457611c04612175565b8b80611c1257611c12612175565b611c1c898e6120c6565b860884090893508880611c3157611c31612175565b8980611c3f57611c3f612175565b8c8e096002099497509295509293505050505b955095509592505050565b60008215801590611c6e5750818314155b8015611c7957508115155b611cb65760405162461bcd60e51b815260206004820152600e60248201526d24b73b30b634b210373ab6b132b960911b60448201526064016104d1565b6000600183825b86156113db57611ccd878361256e565b9050828680611cde57611cde612175565b8780611cec57611cec612175565b858409611cf990896120c6565b8608909450925086611d0b81836120af565b611d1590846120c6565b97509150611cbd565b60405180608001604052806004906020820280368337509192915050565b6001600160e01b031981168114610ce057600080fd5b600060208284031215611d6457600080fd5b8135611d6f81611d3c565b9392505050565b60005b83811015611d91578181015183820152602001611d79565b50506000910152565b60008151808452611db2816020860160208601611d76565b601f01601f19169290920160200192915050565b602081526000611d6f6020830184611d9a565b600060208284031215611deb57600080fd5b5035919050565b80356001600160a01b03811681146106ac57600080fd5b60008060408385031215611e1c57600080fd5b611e2583611df2565b946020939093013593505050565b600080600060608486031215611e4857600080fd5b611e5184611df2565b9250611e5f60208501611df2565b9150604084013590509250925092565b600060208284031215611e8157600080fd5b611d6f82611df2565b8015158114610ce057600080fd5b60008060408385031215611eab57600080fd5b611eb483611df2565b91506020830135611ec481611e8a565b809150509250929050565b634e487b7160e01b600052604160045260246000fd5b60008060008060808587031215611efb57600080fd5b611f0485611df2565b9350611f1260208601611df2565b925060408501359150606085013567ffffffffffffffff80821115611f3657600080fd5b818701915087601f830112611f4a57600080fd5b813581811115611f5c57611f5c611ecf565b604051601f8201601f19908116603f01168101908382118183101715611f8457611f84611ecf565b816040528281528a6020848701011115611f9d57600080fd5b82602086016020830137600060208483010152809550505050505092959194509250565b60008060408385031215611fd457600080fd5b611fdd83611df2565b9150611feb60208401611df2565b90509250929050565b600181811c9082168061200857607f821691505b60208210810361202857634e487b7160e01b600052602260045260246000fd5b50919050565b60006020828403121561204057600080fd5b8151611d6f81611e8a565b6020808252602e908201527f4552433732313a2063616c6c6572206973206e6f7420746f6b656e206f776e6560408201526d1c881b9bdc88185c1c1c9bdd995960921b606082015260800190565b634e487b7160e01b600052601160045260246000fd5b808202811582820484141761039e5761039e612099565b8181038181111561039e5761039e612099565b634e487b7160e01b600052603260045260246000fd5b60006001820161210157612101612099565b5060010190565b8082018082111561039e5761039e612099565b6000845161212d818460208901611d76565b845190830190612141818360208901611d76565b600b60fa1b91018181528451909190612161816001850160208901611d76565b600192019182015260020195945050505050565b634e487b7160e01b600052601260045260246000fd5b60008261219a5761219a612175565b500690565b600085516121b1818460208a01611d76565b703c706f6c79676f6e20706f696e74733d2760781b90830190815285516121df816011840160208a01611d76565b6c04e40ccd2d8d87a4ed0e6d8c25609b1b60119290910191820152845161220d81601e840160208901611d76565b650b0c4c0c094b60d21b601e92909101918201528351612234816024840160208801611d76565b7f252c302e352927207374726f6b653d276e6f6e6527202f3e000000000000000060249290910191820152603c019695505050505050565b7f3c3f786d6c2076657273696f6e3d22312e302220656e636f64696e673d22555481526523169c111f9f60d11b60208201527f3c73766720786d6c6e733d22687474703a2f2f7777772e77332e6f72672f323060268201527f30302f7376672220786d6c6e733a786c696e6b3d22687474703a2f2f7777772e60468201527f77332e6f72672f313939392f786c696e6b222077696474683d2233353070782260668201527f206865696768743d223335307078222076696577426f783d223020302039393760868201527f2039393722207374796c653d226261636b67726f756e642d636f6c6f723a236660a6820152633333111f60e11b60c68201526000825161237e8160ca850160208701611d76565b651e17b9bb339f60d11b60ca93909101928301525060d001919050565b6c566f6c63616e6f204e4654202360981b8152600082516123c381600d850160208701611d76565b91909101600d0192915050565b693d913730b6b2911d101160b11b815282516000906123f681600a850160208801611d76565b7f222c202261747472696275746573223a205b5d2c20226465736372697074696f600a918401918201527f6e223a2022566f6c63616e6f204e465473206172652072616e646f6d6c792067602a8201527f656e65726174656420696d61676573206f6620616e206572757074696e672076604a8201527f6f6c63616e6f21222c2022696d616765223a2022646174613a696d6167652f73606a8201526d1d99cade1b5b0ed8985cd94d8d0b60921b608a82015283516124bc816098840160208801611d76565b61227d60f01b60989290910191820152609a01949350505050565b7f646174613a6170706c69636174696f6e2f6a736f6e3b6261736536342c00000081526000825161250f81601d850160208701611d76565b91909101601d0192915050565b60208082526032908201527f4552433732313a207472616e7366657220746f206e6f6e20455243373231526560408201527131b2b4bb32b91034b6b83632b6b2b73a32b960711b606082015260800190565b60008261257d5761257d612175565b500490565b6001600160a01b03858116825284166020820152604081018390526080606082018190526000906125b590830184611d9a565b9695505050505050565b6000602082840312156125d157600080fd5b8151611d6f81611d3c56fe4142434445464748494a4b4c4d4e4f505152535455565758595a6162636465666768696a6b6c6d6e6f707172737475767778797a303132333435363738392b2fa2646970667358221220dd5cdd18f52871a392d3127d4dd2eda4578a346d1213c545bae44721d893352964736f6c63430008110033",
  "devdoc": {
    "kind": "dev",
    "methods": {
      "approve(address,uint256)": {
        "details": "See {IERC721-approve}."
      },
      "balanceOf(address)": {
        "details": "See {IERC721-balanceOf}."
      },
      "getApproved(uint256)": {
        "details": "See {IERC721-getApproved}."
      },
      "isApprovedForAll(address,address)": {
        "details": "See {IERC721-isApprovedForAll}."
      },
      "name()": {
        "details": "See {IERC721Metadata-name}."
      },
      "owner()": {
        "details": "Returns the address of the current owner."
      },
      "ownerOf(uint256)": {
        "details": "See {IERC721-ownerOf}."
      },
      "renounceOwnership()": {
        "details": "Leaves the contract without owner. It will not be possible to call `onlyOwner` functions anymore. Can only be called by the current owner. NOTE: Renouncing ownership will leave the contract without an owner, thereby removing any functionality that is only available to the owner."
      },
      "safeTransferFrom(address,address,uint256)": {
        "details": "See {IERC721-safeTransferFrom}."
      },
      "safeTransferFrom(address,address,uint256,bytes)": {
        "details": "See {IERC721-safeTransferFrom}."
      },
      "setApprovalForAll(address,bool)": {
        "details": "See {IERC721-setApprovalForAll}."
      },
      "supportsInterface(bytes4)": {
        "details": "See {IERC165-supportsInterface}."
      },
      "symbol()": {
        "details": "See {IERC721Metadata-symbol}."
      },
      "tokenURI(uint256)": {
        "details": "See {IERC721Metadata-tokenURI}."
      },
      "transferFrom(address,address,uint256)": {
        "details": "See {IERC721-transferFrom}."
      },
      "transferOwnership(address)": {
        "details": "Transfers ownership of the contract to a new account (`newOwner`). Can only be called by the current owner."
      }
    },
    "version": 1
  },
  "userdoc": {
    "kind": "user",
    "methods": {},
    "version": 1
  },
  "storageLayout": {
    "storage": [
      {
        "astId": 827,
        "contract": "contracts/VolcanoNFT.sol:VolcanoNFT",
        "label": "_name",
        "offset": 0,
        "slot": "0",
        "type": "t_string_storage"
      },
      {
        "astId": 829,
        "contract": "contracts/VolcanoNFT.sol:VolcanoNFT",
        "label": "_symbol",
        "offset": 0,
        "slot": "1",
        "type": "t_string_storage"
      },
      {
        "astId": 833,
        "contract": "contracts/VolcanoNFT.sol:VolcanoNFT",
        "label": "_owners",
        "offset": 0,
        "slot": "2",
        "type": "t_mapping(t_uint256,t_address)"
      },
      {
        "astId": 837,
        "contract": "contracts/VolcanoNFT.sol:VolcanoNFT",
        "label": "_balances",
        "offset": 0,
        "slot": "3",
        "type": "t_mapping(t_address,t_uint256)"
      },
      {
        "astId": 841,
        "contract": "contracts/VolcanoNFT.sol:VolcanoNFT",
        "label": "_tokenApprovals",
        "offset": 0,
        "slot": "4",
        "type": "t_mapping(t_uint256,t_address)"
      },
      {
        "astId": 847,
        "contract": "contracts/VolcanoNFT.sol:VolcanoNFT",
        "label": "_operatorApprovals",
        "offset": 0,
        "slot": "5",
        "type": "t_mapping(t_address,t_mapping(t_address,t_bool))"
      },
      {
        "astId": 7,
        "contract": "contracts/VolcanoNFT.sol:VolcanoNFT",
        "label": "_owner",
        "offset": 0,
        "slot": "6",
        "type": "t_address"
      },
      {
        "astId": 3696,
        "contract": "contracts/VolcanoNFT.sol:VolcanoNFT",
        "label": "tokenIdCounter",
        "offset": 0,
        "slot": "7",
        "type": "t_struct(Counter)2199_storage"
      }
    ],
    "types": {
      "t_address": {
        "encoding": "inplace",
        "label": "address",
        "numberOfBytes": "20"
      },
      "t_bool": {
        "encoding": "inplace",
        "label": "bool",
        "numberOfBytes": "1"
      },
      "t_mapping(t_address,t_bool)": {
        "encoding": "mapping",
        "key": "t_address",
        "label": "mapping(address => bool)",
        "numberOfBytes": "32",
        "value": "t_bool"
      },
      "t_mapping(t_address,t_mapping(t_address,t_bool))": {
        "encoding": "mapping",
        "key": "t_address",
        "label": "mapping(address => mapping(address => bool))",
        "numberOfBytes": "32",
        "value": "t_mapping(t_address,t_bool)"
      },
      "t_mapping(t_address,t_uint256)": {
        "encoding": "mapping",
        "key": "t_address",
        "label": "mapping(address => uint256)",
        "numberOfBytes": "32",
        "value": "t_uint256"
      },
      "t_mapping(t_uint256,t_address)": {
        "encoding": "mapping",
        "key": "t_uint256",
        "label": "mapping(uint256 => address)",
        "numberOfBytes": "32",
        "value": "t_address"
      },
      "t_string_storage": {
        "encoding": "bytes",
        "label": "string",
        "numberOfBytes": "32"
      },
      "t_struct(Counter)2199_storage": {
        "encoding": "inplace",
        "label": "struct Counters.Counter",
        "members": [
          {
            "astId": 2198,
            "contract": "contracts/VolcanoNFT.sol:VolcanoNFT",
            "label": "_value",
            "offset": 0,
            "slot": "0",
            "type": "t_uint256"
          }
        ],
        "numberOfBytes": "32"
      },
      "t_uint256": {
        "encoding": "inplace",
        "label": "uint256",
        "numberOfBytes": "32"
      }
    }
  }
}